:100000000C9475060C94AD060C94AD060C94AD06DC
:100010000C94AD060C94AD060C94AD060C94AD0694
:100020000C94AD060C94AD060C949F100C945B16CA
:100030000C9484250C94AD060C94AD060C94AD067E
:100040000C94AD060C94AD060C94AD060C94AD0664
:100050000C94AD060C9478110C94AD060C94AD067E
:100060000C94AD060C94AD060C94AD060C94AD0644
:100070000C94AD060C94AD060C94AD060C94AD0634
:100080000C94AD060C94AD060C94AD060C94AD0624
:100090000C94AD060C94AD060C94AD060C94AD0614
:1000A0000C94AD060C94AD060C94AD0605010980C8
:1000B000A101850319012AB700150126B700950192
:1000C00075108100C0050C0901A101850419012AE0
:1000D000A002150126A002950175108100C00660DE
:1000E000FF0961A1010962150026FF00952075082E
:1000F00081020963150026FF00952075089102C052
:1001000005010906A101050719E029E715002501E8
:10011000950875018102950175088101050719008F
:1001200029FF150026FF00950675088100050819AE
:10013000012905950575019102950175039101C08D
:1001400000DA0281FFD9F1DB20A4A62EAF00A0C007
:1001500000A1C800AED580A81FD300408D14200098
:10016000B6B6B6B6B5B6B6B6B6B6B6B6B6B6B6B630
:10017000B6B6B6B6B6808182838485868788898A3A
:100180008B8C8D8E8F9091929394A0A1A2A3A4A505
:10019000A6A7A8A9AAABACADAEAFB0B1B2B3B4C07C
:1001A000C1C2C3C4C5C6C7C8C9CACBCCCDCECFD0C7
:1001B000D1D2D3D400D7D8D9DADBDCDD00B7B8B9D7
:1001C000BABBBCBD009798999A9B9C9D00B695962A
:1001D000D5D6B6B600202020202000434150532021
:1001E000002020202020004E4C434B2000202020C7
:1001F0002020005343524C4B0054656D70204C61DD
:10020000796572203F0054656D70204C617965728C
:1002100020330054656D70204C6179657220320086
:1002200054656D70204C6179657220310054656DA4
:1002300070204C6179657220300020202020202021
:10024000202020202020004C6F636B204C617965BA
:1002500072203F004C6F636B204C617965722033D4
:10026000004C6F636B204C617965722032004C6FDB
:10027000636B204C617965722031004C6F636B2099
:100280004C61796572203000FD377A585A000004BD
:10029000E6D6B4460200210116000000742FE5A343
:1002A000E005CF01665D003D888986D3DC0AE8421F
:1002B000C324925842588FD8E75CA0D2616E26E8DA
:1002C00088019A676C7887BC8D3709EA511D70D216
:1002D000DBC0939E431ACA82F753BA0C053629FB3A
:1002E000E9C2259A49AE32FC376777C0FE3CC97334
:1002F00005F1384BFAC51AB428E2E85A80F6D6A9B7
:10030000CAD5308A2F5702CA10BACBDB7577B888A6
:10031000FB3D3D9D768CAB39B745ACB7CC7BB0A4EB
:100320009097A8BCE78FB88DE9918AEF79303BEFC1
:10033000F603DAA274AC759D7A50767E361CC6D46C
:10034000C740A56FC0F3030EBF2AD4AC265C7C6205
:10035000C475C32A06FBE8D2E54F5A6603E3F3D51A
:100360004DFEB1ABFEF854EF99DB4BBE9D281AE968
:10037000E3B63F216DB6437353153905E73A1606C8
:1003800088A44DCE8A916FF194665E515355D06822
:10039000408DC2464AE7B258CC94E0535786F346A4
:1003A000D4AAD9F98796A6DC22A9F50A866EC21FBF
:1003B0002022718D95A5CB41D06DF9146B23554B3F
:1003C000D7021F8AE2A973514DD7B565F726EEC152
:1003D0002B249459724350D40A9E8525ABF4F337ED
:1003E00048114BD61837BAD8D2227A3F56AD93B0BF
:1003F000F3D340090980E264F09E0531202F850780
:10040000652301836E2280FABD87776100000000BA
:10041000D509781C83B54EA700018203D00B0000DC
:10042000A64D8CFDB1C467FB020000000004595AC0
:100430002B001A0015001C000C001300E000160031
:1004400009000B000E003300E1001B001900110031
:100450003600380000000000000000002C00E6001C
:1004600014000800170018001200280004000700FC
:100470000A000D000F0034001D00060005001000EA
:100480003700E500E30001512A00A80002510000F6
:1004900029001F0221022302250227020100010078
:1004A00001002D002F0031000100010001002D028C
:1004B0002F023102000000000000000001000100D6
:1004C0001E02200222022402260201000100010075
:1004D00001002E00300035000100010001002E0255
:1004E000300235020100010001004C000351000000
:1004F00029001F0021002300250027000100010022
:100500000100500052000100010001000100010043
:1005100001000100000000000000000001000100D7
:100520001E0020002200240026000100010001001E
:10053000010051004F000100010001000100010015
:100540000100010001000351010039000100000019
:1005500001003B003D003F0041004300010001005D
:1005600001004A004B0001000100010001000100F0
:100570000100010000000000000000000100005C1C
:100580003A003C003E0040004200450001000100EE
:1005900001004E004D0001000100010001000100BA
:1005A00001000100010003510100010001000000F1
:1005B000010001008502F40F271000000200020074
:1005C0008102F40F27100000030001008602F40FDF
:1005D00027100000040002006B02F40F27100E0920
:1005E000050001008702F40F27100000060002003A
:1005F0006D02F40F27100000070002008302F40FC1
:1006000027100000080001008802F40F27100000E6
:10061000120002008902F40F2710000013000200EC
:100620008B02F40F27100000140001008D02F40F5C
:100630002710000015000000000094089C1700001F
:1006400000AF00AE0000000000000000000000004D
:10065000000000000000000000000000000000009A
:1006600000000000000000007E0F00D4FFFFFFC765
:100670000000007800000000000000002A2B280085
:100680000000000000000000000000000000002941
:10069000000000002C1E3420212224342627252E81
:1006A000362D3738271E1F202122232425263333B9
:1006B000362E37381F0405060708090A0B0C0D0EE5
:1006C0000F101112131415161718191A1B1C1D2FB1
:1006D0003130232D350405060708090A0B0C0D0ED1
:1006E0000F101112131415161718191A1B1C1D2F91
:1006F0003130354C09025B00030100A0FA09040007
:10070000000103010100092111010001224000073D
:10071000058103080001090401000203000000092B
:100720002111010001222200070582032000010798
:100730000503032000010904020001030000000971
:10074000211101000122320007058403200001125B
:10075000010002000000089EDCE57E0100010203AA
:10076000011C037600690061006C003A00660036E7
:1007700000340063003200620033006300000012A6
:10078000035400650065005300680069007200743E
:10079000000000100344004300500045006400695D
:1007A0000074000000040309040000000000003E83
:1007B0005B4F5B3E003E6B4F6B3E001C3E7C3E1C25
:1007C00000183C7E3C18001C577D571C001C5E7FA7
:1007D0005E1C0000183C180000FFE7C3E7FF0000A4
:1007E0001824180000FFE7DBE7FF0030483A060E48
:1007F00000262979292600407F05050700407F054E
:10080000253F005A3CE73C5A007F3E1C1C0800086C
:100810001C1C3E7F0014227F2214005F5F005F5F7C
:100820000006097F017F00006689956A00606060AC
:1008300060600094A2FFA2940008047E04080010E7
:10084000207E20100008082A1C0800081C2A08081E
:10085000001E10101010000C1E0C1E0C0030383E34
:10086000383000060E3E0E060000000000000000BA
:10087000005F000000000700070000147F147F14D1
:1008800000242A7F2A120023130864620036495686
:10089000205000000807030000001C224100000057
:1008A00041221C00002A1C7F1C2A0008083E080860
:1008B0000000807030000008080808080000006090
:1008C0006000002010080402003E5149453E00002F
:1008D000427F4000007249494946002141494D3359
:1008E000001814127F10002745454539003C4A493D
:1008F000493100412111090700364949493600466E
:100900004949291E00000014000000004034000086
:100910000000081422410014141414140000412291
:100920001408000201590906003E415D594E007C41
:100930001211127C007F49494936003E4141412253
:10094000007F4141413E007F49494941007F0909FB
:100950000901003E41415173007F0808087F0000F3
:10096000417F4100002040413F01007F08142241A7
:10097000007F40404040007F021C027F007F04084F
:10098000107F003E4141413E007F09090906003EBB
:100990004151215E007F0919294600264949493203
:1009A0000003017F0103003F4040403F001F204003
:1009B000201F003F4038403F0063140814630003C9
:1009C00004780403006159494D4300007F414141CF
:1009D00000020408102000004141417F0004020190
:1009E000020400404040404000000307080000208F
:1009F00054547840007F2844443800384444442804
:100A000000384444287E0038545454180000087EAE
:100A10000902001824241C78007F080404780000D0
:100A2000447D4000002040403D00007F10284400ED
:100A30000000417F4000007C04780478007C0804BA
:100A40000478003844444438007C182424180018E2
:100A50002424187C007C08040408004854545424BE
:100A60000004043F4424003C4040207C001C204003
:100A7000201C003C4030403C004428102844004CDE
:100A80009090907C004464544C440000083641002F
:100A9000000000770000000041360800000201025B
:100AA0000402003C2623263C00C0E0F0F8F8FC9C41
:100AB0000C0C040686E6F6F6FE7E0E0E0E0E0E0EEC
:100AC0000F0F0F0F070300000000000000000000E0
:100AD00000000000000000000000C0E0F0F8F8FC9A
:100AE0003C0C0C040CFCFCFCF8F00000000000E0E6
:100AF000FCFCFCFC7C0C000000000000000000007E
:100B0000000000387C7C7C38000000000000000001
:100B100000000000000000000000000000000000D5
:100B2000C0F8FCFCFCFC1C008080C0C04060603051
:100B30003010181C9EB6F6E36361C1C1C08080000E
:100B40000000008080C0C0E0C1C284890B0B0A1283
:100B5000169696D6CACA6763E3F6B69E1C000000D6
:100B600000000000000000000003070F0F0707034C
:100B700000C0F8FFFFFFFF1F0300C0E0F0F8FCFC1F
:100B80009E8ECEC6E67E3C80C0F0F8FCFCBE9E8EFB
:100B9000C6E67E3C00000000808080C3870F1F3FB8
:100BA0003C78F0F0E0C1810101010000C0F8FFFFD6
:100BB000FFFF1F03C06030FCFEFEFEFE7E00000053
:100BC000C0F8FEFEFEFE1E020000E0FCFEFEFE7E01
:100BD0000E80C06018FCFEFEFE3E1C00008EFEFE75
:100BE000FFFFFF3F0F0E0E0000000080C00000005E
:100BF000000000E3E7B7BC1C181818303021616111
:100C0000C3C3C686840D0D191B0D0D8486C6C34350
:100C100061612130301818181CBCB7E7E380C0FCB4
:100C2000E6C3C1C1C3E6FCC08000007CFCFEF0F856
:100C3000FEFF7F3F1F07000000063F7F7FFFFFF1A1
:100C4000F1E1E07070383C1F3F7F7FFFF9F1F1E187
:100C5000F07070381E0E021E3F7F7FFFF8F8F0F034
:100C6000F8787FFFFFFFFFE3607038FEFFFFFF7F34
:100C70003F0C060300387FFFFFFFFFE36060387E14
:100C80007FFFFFFFE7E0607078FFFFFF7F7F1B0CB7
:100C9000070100000003070F0F0E0C0C3C7FFFFF45
:100CA000FFFFE16070381818080CCC28F8F8100025
:100CB0000000000001010103030206060C0C0818E5
:100CC00018303021616143C3C34361613130301852
:100CD00018080C0C0606020303010100003F7FFF09
:100CE000FFF9C0C0F9FFFF7F3F0011241FBECFEF07
:100CF000DAE0DEBFCDBF04B603FE18C08091C804A1
:100D00009091C904A091CA04B091CB048730904B54
:100D1000A740B04B59F41092C8041092C904109225
:100D2000CA041092CB04E0E0F8E3099511E0A0E0DA
:100D3000B1E0E4E4FCE502C005900D92A838B107EB
:100D4000D9F724E0A8E8B1E001C01D92A83CB207A1
:100D5000E1F70E94AB250C94FC2D0C940000E8ED0B
:100D6000F0E080818E7F80831092E2001092DA00A2
:100D70001092E100A0EEB0E08C9181608C938081B4
:100D80008F77808319BCA7EDB0E08C918E7F8C9318
:100D900080818F7E80831092A10208952091E400CB
:100DA0003091E50095E6A9012091EC00822F817039
:100DB00020FF06C08091E80080FF06C080E0089513
:100DC0002091E80022FD1AC08091AE02882389F0AC
:100DD000853089F08091EB0085FD0FC02091E40003
:100DE0003091E50042175307F9F29150E1F684E0A3
:100DF000089582E0089583E0089581E00895EF92D8
:100E0000FF920F931F93CF937C018B010E94CE061C
:100E1000C82F811117C08091E80085FD0BC080911B
:100E2000E8008E778093E8000E94CE06882399F32D
:100E3000C82F08C0F70181917F018093F100015014
:100E4000110949F78C2FCF911F910F91FF90EF90CF
:100E500008958091B00287FF13C08091E80082FF5F
:100E600006C08091E8008B778093E80004C08091F1
:100E7000AE028111F2CF08958091AE028823D9F39A
:100E80008091E80080FFF8CF8091E8008E77ECCF6A
:100E9000982F9093E900242F762F50E0891731F096
:100EA0007091EC002091ED005091F00021FD07C001
:100EB0009F5F973071F78093E90081E0089530914A
:100EC000EB003E7F3093EB003091ED003D7F30939F
:100ED000ED003091EB0031603093EB007093EC004B
:100EE0002093ED005093F0002091EE0027FDE0CF1D
:100EF00080E00895B0E0A0E0E0E8F7E00C943A2D3F
:100F0000C8EDD0E088818F7E8883E7EDF0E08081B6
:100F10008160808384E082BF81E08093A102888128
:100F20008E7F888302EE10E0F80110821092DA00C2
:100F300081EEC82ED12CF601108288818F778883AC
:100F400088818068888388818F7D888319BC10920E
:100F5000AE021092AF021092AD021092AC0290EE6F
:100F6000E92EF12CF70180818B7F8083888181605D
:100F7000888342E060E080E00E944807F6018081BB
:100F80008E7F8083F801808181608083808188608A
:100F90008083F70180818E7F808388818061888350
:100FA000CDB7DEB7E8E00C94562DFC018091B60277
:100FB0009091B70286179707A0F06115710529F483
:100FC0009091E8009E779093E80090E0611571059C
:100FD00051F4911108C08091E80082FF34C080E094
:100FE0000895BC01F2CF8091AE028823C1F1853013
:100FF000C1F18091E80083FD30C08091E80082FD5E
:10100000EACF8091E80080FFE1CF8091F30020914A
:10101000F200382F6115710519F02830310558F0AC
:1010200091E02830310509F090E02091E8002E771A
:101030002093E800CBCF81918093F100615071093A
:101040002F5F3F4FE7CF8091AE02882341F085307C
:1010500041F08091E80083FFBECF81E0089582E0F7
:10106000089583E00895089508958091A302089556
:101070002FB7F89460919A0270919B0280919C0224
:1010800090919D022FBF0895209197023091980270
:101090002817390771F09093980280939702E09196
:1010A0009502F0919602309721F00084F185E02DB1
:1010B00009950895209193023091940228173907D9
:1010C00071F09093940280939302E0919502F091D5
:1010D0009602309721F00680F781E02D099508955A
:1010E000E0919502F0919602309729F00190F081FD
:1010F000E02D0995089580E008952091BD0236E025
:10110000839FC0011124629F800D911D11248115C0
:1011100022E0920714F090E080E080549D4F90937D
:10112000C7048093C6040895B0E0A0E0EAE9F8E0BF
:101130000C94382D8FEF9FEF4430510508F469C0AF
:101140004091200241FB882780F990E0880F991F89
:1011500042FB002700F910E0000F111F000F111FC4
:10116000802B912B40FBCC24C0F8D12C8C299D29BD
:1011700043FB222720F9C22FE0E0DE2F53E0CC0F03
:10118000DD1F5A95E1F78C2B9D2B44FBAA27A0F974
:10119000B0E0E4E0AA0FBB1FEA95E1F78A2B9B2B96
:1011A00045FBEE27E0F9F0E0A5E0EE0FFF1FAA9562
:1011B000E1F78E2B9F2B46FB222720F930E0B6E08B
:1011C000220F331FBA95E1F7822B932B47FB22277F
:1011D00020F930E03695322F222737952795822B3C
:1011E000932B20912102322F3170F32EE82EF92A11
:1011F00026952170B22EBB0CA82EBF28C501BB0CB2
:10120000AA0BBB0BFB0180839183A283B38390E085
:1012100080E0CDB7DEB7EAE00C94542D80916B02EC
:1012200090916C029093160180931501089580E0CF
:101230000895F894E82FE295EF70F0E031A1282F9F
:101240002F7081E090E001C0880F2A95EAF7982F6F
:101250009095932391A392A1892B82A378940895CA
:101260009091200292FF06C0282F28712830F9F4AF
:10127000877F846093FF06C0282F28712831F1F4FE
:10128000877E84612091210220FF06C0382F3871AB
:101290003830D9F4877F816021FF06C0282F28715C
:1012A0002831D1F4877E816194FD877E0895282FAF
:1012B00024712430F9F68B7F8860DCCF282F2471CD
:1012C000243101F78B7E8861DDCF382F31713130C9
:1012D00019F78E7F8860E0CF282F2171213121F707
:1012E0008E7E8861E1CFCF93DF93EC018238910548
:1012F000B1F108F040C08133910509F49DC048F573
:101300008932910509F48DC08A9709F49CC0C115F2
:1013100022E5D20708F0BDC0C11531E5D30708F0BA
:1013200025C1C83ED10508F0A3C0C13ED10588F54E
:10133000C83AD10508F08EC0C53AD10508F0F6C00C
:10134000C130D10531F1209721F1C430D10508F524
:1013500045C08533910509F45FC0C997C1F68091F6
:101360002002837009F037C18091210283FF11C0F0
:10137000C9E2D0E00EC0833E910599F170F4803E41
:10138000910501F1823E910511F68091200282FDC6
:1013900021C0CE01DF91CF910895863E910561F184
:1013A000873E910571F1843E910509F0B0CF80919F
:1013B000210281FFEECF80912002C7EED0E084FDB4
:1013C0000DC0E7CF8091200280FD33C090912102B3
:1013D00090FFDFCFC3EED0E084FFDBCFD0E0C0E0F2
:1013E000D8CF8091200282FDF3C09091210290FD20
:1013F000F2C084FFCECFF2CF8091200283FDDDCFFB
:10140000C8CF8091200283FDE9C09091210291FF15
:10141000F0CFC4EED0E0BDCF8091200285FFB9CFE0
:10142000A7CF8091200285FDDCC08091210283FF3F
:10143000B0CFC9E3D0E0ADCF8091200286FFA9CF25
:10144000CAE2D0E0A6CF8091200286FFA2CFC1E3FE
:10145000D0E09FCFCF3BD10508F6C85AD0E0CC0FE3
:10146000DD1FCC5DDE4F0990D881C02DD46491CFB3
:10147000C11540E5D40708F064C0C11580E4D80761
:1014800008F05CC0CE019A9581159F4108F481CF88
:10149000A5CFC11536E5D30718F5C11545E5D40725
:1014A00008F07DC0C11584E5D80708F073C09C2FF3
:1014B000969596959E0123703327C115D34508F460
:1014C0005AC0C1E0D0E002C0CC0FDD1F2A95E2F780
:1014D00030E2939FC0011124C82BD92BDA6859CF71
:1014E000C1158AE5D80778F4C11529E5D20708F0B7
:1014F00061C0C11538E5D30708F470CFDC2FCC27C5
:10150000C06FD06A46CFCE0190568115904208F048
:1015100065CF8D2F8F710E94300990E0982F88271A
:1015200088279F719C012C2BE90142C0C55AD0E04D
:10153000CF5DDE4FC881D0E0D0642BCFDF70D06AA2
:1015400028CF2C2F26952695237080E2289F900186
:1015500011248C2F8370C1E0D0E002C0CC0FDD1FBE
:101560008A95E2F7C22BD32BDD6813CFDC2FCC2773
:10157000C16FD06A0ECFC1E0D0E002C0CC0FDD1F3A
:101580002A95E2F720E2929FC0011124C82BD92BA3
:10159000DC68FFCEDC2FCC27C46FD06AFACE8C2F4C
:1015A0000E943009C82FD0E0DC2FCC27CC27DF7178
:1015B000D062EFCE8C2F8F700E94300934E0D69528
:1015C000C7953A95E1F7CF709C2FEC01D069E1CE39
:1015D000C2EED0E0DECEC0EED0E0DBCEC6EED0E094
:1015E000D8CEC5E3D0E0D5CE8091ED01882331F08F
:1015F0001092ED011092EC011092EB01089580958C
:1016000090914A02982390934A0208951092E20121
:101610001092E1011092E0010895ECE8F1E091915F
:10162000891303C0DF0111971C9291E0E239F90799
:10163000B1F70895ACE8B1E0EFEF90E02D9182179B
:1016400051F0EF3F19F4211101C0E92F9F5F96304F
:10165000A9F7EF3F09F408950E2E000CFF0BE65793
:10166000FE4F828308952091DF019091AE0156E0F4
:10167000291302C080E0089530E0529FF001539F8B
:10168000F00D1124E155FE4F7181761306C0708173
:10169000781303C07281741304C02F5F3F4F27700B
:1016A000E7CF81E008958091DF019091AE0198131A
:1016B00001C008958F5F8770FACF292F983078F591
:1016C000863068F590E036E0239F800D911D11244F
:1016D000682F677023E0969587952A95E1F7FC01BE
:1016E000EE0FFF1FE80FF91FEA56FE4F50E040E0F3
:1016F00080E0219130E0062E02C0369527950A94AD
:10170000E2F721703327042E01C0220F0A94EAF772
:10171000822B4F5F5F4F4330510559F7089580E0AA
:101720000895292F983098F5863088F590E036E0B6
:10173000239F800D911D1124282F277041E001C0A7
:10174000440F2A95EAF723E0969587952A95E1F7C5
:10175000FC01EE0FFF1FE80FF91FEA56FE4F30E0C5
:1017600020E070E05191DF011197CB01022E02C001
:10177000969587950A94E2F7817081958527842351
:1017800085278C932F5F3F4F2330310559F70895FC
:1017900092959F70963091F058F4925F9F709230BE
:1017A00058F4803F19F030F4883E30F481E0089519
:1017B0009A5FF4CF843FD1F380E00895883EB0F380
:1017C000813FD1F7F3CF982F92959F7011F0892F19
:1017D00094E0282F2695269511F09E5F822F8695FE
:1017E00009F09F5F892F08959C013A9521153F418B
:1017F00050F5FC01EE27F170BC0166277270AC0158
:10180000442754709C012227387094FF0EC080E159
:10181000EF2B09F480E0672B09F08062452B09F07B
:101820008064232B89F08068089581E0EF2B09F410
:1018300080E0672B09F08260452B09F08460232B40
:1018400019F08860089580E00895E0ECF2E080E00F
:1018500092E0DF019C011D9221503040E1F7F093AE
:10186000C704E093C6048FEF9FEF9093BF0280936D
:10187000BE020895CF93DF93C091C604D091C704F0
:101880008A30C1F42091BD02CE01805C9240622F6B
:1018900070E00E941C2D281B822F66E00E94672D9D
:1018A000C82FC15018F4DF91CF91089580E20E94B3
:1018B0003A0CF7CF8D30E9F4C05CD2402091BD02E4
:1018C000622F70E0CE010E941C2D281B822F9E01EA
:1018D000280F311D2115324018F080E0D0E0C0E023
:1018E000C80FD11DC054DD4FD093C704C093C604A8
:1018F000DACF96E0FE01A0ECB4E001900D929A954B
:10190000E1F7803E08F458C086E0FE0111928A9506
:10191000E9F7C091C604D091C70446E050E0BE018B
:1019200080EC94E00E949D2D9E01205C3240892B2A
:1019300041F1C90145E0969587954A95E1F741E067
:1019400050E0BA0102C0660F771F8A95E2F7CB011B
:101950006091BE027091BF02862B972BB9016B5F1D
:101960007F4FE5E076956795EA95E1F702C0440F71
:10197000551F6A95E2F7842B952B9093BF028093B5
:10198000BE022A5F3F4F4091BD02642F70E0C90143
:101990000E941C2D481B463010F4240F311D2115C8
:1019A00072E0370710F030E020E020543D4F3093D4
:1019B000C7042093C60477CFF6E08F9FB0011124AF
:1019C0006755784F46E050E0CE010E94942DA1CF9C
:1019D000CF93DF93EC01FE018491811103C0DF916D
:1019E000CF9108950E943A0C2196F5CFB0E0A0E087
:1019F000ECEFFCE00C943A2D6C017B0164E670E0A6
:101A000088E70E94362CEC0197FD12C010E000E040
:101A1000F601E00FF11F849164E670E00E94A22CB1
:101A2000EC01892B29F40F5F1F4F0E151F0581F75D
:101A30000E94182DCE01CDB7DEB7E8E00C94562DEC
:101A40008091480290914902911103C091E0892749
:101A50000895882369F062E070E082E496E00E94D5
:101A6000F60C892B19F080914802089510924802D3
:101A700080914802EBCFCF93C091480280914902F8
:101A80008823D1F00E943808605A75418F4F9F4FCC
:101A900060934402709345028093460290934702FC
:101AA000C11108C062E070E080E496E00E94F60C8C
:101AB000892B29F0C09148028C2FCF91089581E0A5
:101AC00080934802F7CF80939E027093A0026093A8
:101AD0009F028091AE028430F9F48093E9008FEF89
:101AE0009091E800815095FD06C095ED9A95F1F72B
:101AF00000008111F5CF8091E80085FF0DC050E016
:101B000040E063E070E08EE992E00E94FF06809181
:101B1000E8008E778093E8000895BC0184E00E947D
:101B2000630D0895BC0183E00E94630D0895CF9377
:101B3000DF93EC0181E08093E9008FEF9091E80062
:101B4000815095FD06C095ED9A95F1F70000811141
:101B5000F5CF8091E80085FF14C050E040E068E0D8
:101B600070E0CE010E94FF068091E8008E7780939E
:101B7000E80088E0FE01A4EAB2E001900D928A95A7
:101B8000E1F7DF91CF91089581E08093E00080E25A
:101B90008093D8001092C9008FE19EE40197F1F77D
:101BA00000C0000087E090EBDC018093C8049093B4
:101BB000C904A093CA04B093CB0488E19CE00FB69B
:101BC000F894A895809360000FBE90936000FFCFBB
:101BD000019708F40895EFE9FFE03197F1F700C0AD
:101BE0000000F6CF2F923F925F926F927F928F927A
:101BF0009F92AF92BF92CF92DF92EF92FF920F939C
:101C00001F93CF93DF9380914902882369F020913D
:101C1000BE023091BF022115310531F0809143029F
:101C200061E070E0882399F0DF91CF911F910F91CF
:101C3000FF90EF90DF90CF90BF90AF909F908F90EC
:101C40007F906F905F903F902F9008958F5F082F47
:101C500010E01B01082E02C0220C331C0A94E2F78C
:101C6000A90142215321452B89F39091420290FD15
:101C700044C08295880F8076809310019801369534
:101C800027953695279520931301815E8093110146
:101C90001092140124E630E047E050E06EE071E07D
:101CA00088E70E94D02C892B09F0BECFA80125E03F
:101CB000440F551F2A95E1F78091420280FD2BC009
:101CC00040545D4F04E610E020E230E060E488E735
:101CD0000E94F12C892B09F0A7CF0E943B0DE10156
:101CE000C095D0958091BE029091BF02C823D923A0
:101CF000D093BF02C093BE0297CF880F880F880F82
:101D00008093100110921301895F8093110183E089
:101D100080931401BFCFE2E2F2E080E2DF011D9286
:101D20008A95E9F7A4E7B1E000E711E088E7C82E5B
:101D300081E0D82E97E0592E772473948D91E80195
:101D400029918E01240F352F311D20543D4FE82F4E
:101D5000F0E0EE5DFD4F90E080E0652C681A872C86
:101D6000082E01C0880C0A94EAF77901A12CE7013A
:101D7000B9907E01B820662D6A196770962E062EDE
:101D8000000C770BDB2D01C0DD0F9A94EAF77195FB
:101D9000619571096770772701C0B6946A95EAF773
:101DA000BD2A6081962E9B289082A39468E0A6129B
:101DB000DECF019631968830910579F6CA16DB069A
:101DC00009F0BCCF04E610E020E230E042E252E04D
:101DD0007DCF0F931F93CF93DF930BE612E0C7EBFA
:101DE000D1E0CE010E94BA2DF80181938F01219696
:101DF000CB3DF1E0DF07A9F7CAEBD5E0FE01859105
:101E00009491009711F0FC0109952C96F6E0CA34E4
:101E1000DF07A1F7DF91CF911F910F9108950F93E5
:101E20001F93CF93DF93843030F5683020F5463030
:101E300010F5C42FD0E0CC0FDD1F2CE0629FC00D49
:101E4000D11D112430E6839FC00DD11D1124CE0178
:101E500087960E94BA2D082F10E0102F0027CE0180
:101E600088960E94BA2D9801282BC901DF91CF9145
:101E70001F910F91089590E080E0F8CF462F2091B8
:101E80001E0230911F02232B99F4703F39F4603FFA
:101E900079F480911C0290911D020895843040F4E1
:101EA000783030F4663020F4672F0E940F0F0895C9
:101EB00090E080E00895CF92DF92FF920F931F93FE
:101EC000CF93DF936C010091BC0280910A02082B32
:101ED000C7E0D0E010E0FC2EC8010C2E02C09595A2
:101EE00087950A94E2F780FD0CC02197A0F7F12CAA
:101EF0008F2DDF91CF911F910F91FF90DF90CF90A9
:101F00000895B6018C2F0E943E0F0E94730901971D
:101F100061F3EECFCF93DF93EC010E945B0FBE0124
:101F20000E943E0F0E947309DF91CF910895FC013A
:101F300083819481892B29F08081918189238F3F2E
:101F400011F480E00895808191810E948A0F0E949F
:101F5000C80B0895A5E0B0E0E0EBFFE00C943F2D46
:101F600049835A8389819A81662399F0222389F0D3
:101F70000E945B0F182F682F89819A810E94910B14
:101F800069817A81812F0E943E0F2596E3E00C94AF
:101F90005B2D0E945D0B182FF3CF83E290E00E942F
:101FA000BA2D8C3989F484E290E00E94BA2D8138F0
:101FB00059F485E290E00E94BA2D91E08D3709F046
:101FC00090E0892F8170089580E0FCCFCF9384E06A
:101FD00090E00E94BA2DC82F82E290E00E94BA2DB4
:101FE000982F8C2FCF910895DB01FC01329625911B
:101FF00034914217530758F0FC013496659174915F
:10200000A901CD010E94AA2D90E080E008958FEFF4
:102010009FEF08950F931F93CF93DF930BE612E08A
:10202000C7EBD1E0CE010E94BA2DF80161918F017A
:10203000681719F0CE010E94C82D2196CB3DF1E022
:10204000DF0781F7DF91CF911F910F910895DA019A
:102050009C012E5F3F4FF90145915491F901259163
:102060003491A217B30758F0FC01349685919491EE
:102070000E94AA2D0E940A1090E080E008958FEF40
:102080009FEF0895CF93DF93CBEDD1E060E0CE01D9
:102090000E94C82D2196C11584E0D807B9F7DF91B9
:1020A000CF9108951F93CF93DF93122F8430E0F4E4
:1020B0006830D0F44630C0F4C42FD0E0CC0FDD1F20
:1020C0009CE0699FC00DD11D112490E6899FC00D31
:1020D000D11D1124632FCE0187960E94C82D612F38
:1020E000CE0188960E94C82DDF91CF911F9108954F
:1020F000CF93C82F6FEF81116CE983E290E00E94CB
:10210000C82D6FEFC11161E884E290E00E94C82DF4
:102110006FEFC1116DE785E290E00E94C82DCF916D
:102120000895CF93C92F682F84E090E00E94C82DB6
:102130006C2F82E290E00E94C82DCF9108951F92EB
:102140000F920FB60F9211242F933F934F935F93EB
:102150006F937F938F939F93AF93BF93EF93FF936F
:102160008091E10082FF09C08091E20082FF05C0FA
:102170008091E1008B7F8093E1008091DA0080FF05
:1021800024C08091D80080FF20C08091DA008E7F2B
:102190008093DA008091D90080FF9DC080E189BDE5
:1021A00082E189BD09B400FEFDCF81E08093AE02DB
:1021B0008091A102811109C00E94AF060E947A0796
:1021C0008091E20084608093E2008091E10080FFD2
:1021D00017C08091E20080FF13C08091E2008E7FE3
:1021E0008093E2008091E20080618093E200809120
:1021F000D80080628093D80019BC85E08093AE023D
:102200008091E10084FF2BC08091E20084FF27C011
:1022100080E189BD82E189BD89B5982F917080FFE9
:10222000FBCF8091D8008F7D8093D8008091E10012
:102230008F7E8093E1008091E2008F7E8093E200A8
:102240008091E20081608093E2008091AF02882358
:1022500009F447C084E08093AE028091AE02809181
:10226000E10083FF27C08091E20083FF23C08091BB
:10227000E100877F8093E10082E08093AE021092BC
:10228000AF028091E1008E7F8093E1008091E200B7
:102290008E7F8093E2008091E20080618093E20073
:1022A00042E060E080E00E9448078091F000886092
:1022B0008093F000FF91EF91BF91AF919F918F912B
:1022C0007F916F915F914F913F912F910F900FBE32
:1022D0000F901F90189519BC1092AE021092A10297
:1022E00074CF8091E30087FD93E09093AE02B5CF69
:1022F00078941F921FB61F9211248F939F93AF93D0
:10230000BF9380919A0290919B02A0919C02B09100
:102310009D020196A11DB11D80939A0290939B028C
:10232000A0939C02B0939D02BF91AF919F918F911A
:102330001F901FBE1F9018959C014FB7F894809175
:102340009A0290919B02A0919C02B0919D024FBF76
:10235000821B930B08952FB7F89480919A02909165
:102360009B02A0919C02B0919D022FBF0895A8E00E
:10237000B0E0EDEBF1E10C94372D8E010F5F1F4FB4
:1023800088E0F80111928A95E9F782E5C82E81E08C
:10239000D82EF12CE12CAA24A394B12CF601819122
:1023A0006F018F3F09F443C0F894E82FE295EF7076
:1023B000F0E021A18F70A50102C0440F551F8A953E
:1023C000E2F7CA01922F982B91A392A180958923BD
:1023D00082A3789400C0EAE5F1E0912C31E02191EC
:1023E0002F3F09F465C0A22FA295AF70B0E0909680
:1023F0008C9190E02F7002C0959587952A95E2F711
:1024000080FD56C0832F982A330F51E0E036F50740
:1024100031F7F601319780818F3F11F00E94190941
:1024200080EA8A95F1F7F801EE0DFF1D9082EFEF3B
:10243000EE1AFE0AF8E0EF16F10409F0AFCF48E01B
:1024400050E0B80181EF91E00E949D2D892B91F120
:1024500088E0F801A1EFB1E001900D928A95E1F7D3
:1024600081E08093F0010E94AB119093EF01809383
:10247000EE018091EE019091EF010E949C11059771
:10248000E8F048E050E061EF71E084E192E00E9402
:102490009D2D892BC1F088E0E1EFF1E0A4E1B2E0ED
:1024A00001900D928A95E1F781E01092F00107C04A
:1024B00080E0A9CF8091F0018111DBCF80E02896E8
:1024C000EBE00C94532D80E0F0CFCF93C82F809198
:1024D000210282FF0CC08091ED018C1741F00E9417
:1024E000AB119093EC018093EB01C093ED01CF9180
:1024F000089580916D0290916E02892B89F00E945F
:10250000AB112091EB013091EC01AC01421B530B5C
:1025100081E020916D0230916E024217530708F45A
:1025200080E08170089580914A029091B802892BD1
:1025300080938A018091ED01882309F180916D02D9
:1025400090916E02892B29F00E94791281110E94CC
:10255000F40A80918A019091ED01892B80938A0180
:1025600020E08CE891E0FC013191CF0131112F5F27
:10257000F1E082399F07B9F721110E94F40A48E07F
:1025800050E063EE71E08AE891E00E949D2D892B76
:10259000A9F088E0EAE8F1E0A3EEB1E001900D9245
:1025A0008A95E1F7E0919502F0919602309731F02B
:1025B0000280F381E02D8AE891E0099508958091E9
:1025C0001701877F809317019091B8029D7F9093A8
:1025D000B80284FF08C08F7E8093170180914A0261
:1025E000826080934A028091170185FF08C08F7D29
:1025F0008093170180914A02806280934A020E9470
:102600009312089590E080E00E945A0890E080E0E4
:102610000E9444081092B8020E9493120895809379
:10262000BC020E94021308958091BC02982F9670FC
:10263000963021F488600E940F130895877FFBCFA6
:1026400021E030E001C0220F8A95EAF720958091C1
:10265000BC0282230E940F1308959091E20180959D
:1026600089238093E201282F277091F4282F082EC8
:10267000000C330B9217130659F09091210292FF30
:1026800007C08595859585950E9420130E94060BAD
:1026900008959091210292FB222720F9281769F0D2
:1026A00080FB92F990932102809120029091210267
:1026B0000E94911082E00E942D13089521E030E0E5
:1026C00001C0220F8A95EAF78091BC02822B0E94FA
:1026D0000F1308959091210292FF10C098E0899FF6
:1026E00090011124622B6093E2010E945E130E940C
:1026F000AB119093E1018093E00108950E945E1375
:10270000089580930A020E940213089510924A02CB
:10271000ECE8F1E086E0DF011D928A95E9F70E947E
:1027200002130895AAE2B0E0E8E9F3E10C943F2D2A
:1027300080EB92E02091F100DC012D93CD01B2E01D
:10274000883B9B07B9F78091B102833009F472C0CE
:10275000B8F4813009F449C0823009F4B3C08091E3
:10276000E80083FF96C28091B0029091B1029A3046
:1027700008F08FC2E92FF0E0E250F24D0C94872D63
:102780008A3009F48EC08B3009F471C0893039F772
:102790008091B002813219F78091B4029091B50214
:1027A000009711F00297D9F68091E800877F809317
:1027B000E8008091E80082FF38C09091F30080919A
:1027C000F200029731F48091F100813011F08630EF
:1027D00021F48091F1008093A3028091E8008B772F
:1027E0008093E8000E942907BACF8091B002813A15
:1027F00009F0B5CF8091E800877F8093E800809151
:10280000B4029091B502892B61F468E084EA92E009
:1028100070E00E94D5078091E8008B778093E800F4
:102820009ECF60E090E080E0F3CF8091AE02811116
:10283000C0CF95CF8091B002813A09F090CF8091BE
:10284000B4029091B502892B09F089CF8091E800FC
:10285000877F8093E8008091E80080FFFCCF809123
:1028600018018093F1008091E8008E77B9CF8091B4
:10287000B002813209F073CF8091B4029091B50219
:10288000892B09F06CCF8091E800877F8093E80066
:102890000E9429078091B202809318010E9486133A
:1028A0005ECF8091B002813209F059CF8091E8006B
:1028B000877F8093E8000E9429078091B30280936C
:1028C000A2024DCF8091B002813A09F048CF8091A9
:1028D000E800877F8093E8008091E80080FFFCCFCC
:1028E0008091A202BECF803899F0823809F0D1C120
:1028F0008091B4028F70873008F0CBC18093E900DB
:102900008091EB0085FB882780F91092E90006C0D2
:102910008091AC029091AD02911182609091E8009B
:10292000977F9093E8008093F1001092F1008091DE
:10293000E8008E77AAC1882309F498C1823009F093
:10294000A8C18091B20281119BC18091B4028F70A5
:102950002FEF280F263008F09CC18093E9002091CA
:10296000EB0020FF8DC1933031F48091EB00806249
:102970008093EB0085C19091EB0090619093EB0008
:1029800021E030E001C0220F8A95EAF72093EA00A7
:102990001092EA008091EB008860EACF811179C142
:1029A0001091B2021F778091E3008078812B809391
:1029B000E3008091E800877F8093E8000E94290768
:1029C0008091E80080FFFCCF8091E30080688093D5
:1029D000E30082E0111183E08093AE025AC1805877
:1029E000823008F056C12091B2023091B3022C3DE2
:1029F000E3E03E07A1F583E08A838AE289834FB74B
:102A0000F894DE01139620E03EE051E2E32FF0E07F
:102A100050935700E49120FF03C0E295EF703F5FB1
:102A2000EF708E2F90E0EA30C0F0C7968D939D93A3
:102A30002F5F243159F74FBF8091E800877F809343
:102A4000E8006AE270E0CE0101960E94D50780910D
:102A5000E8008B778093E8001CC1C096E7CF809197
:102A6000B4029091B502432F55274330510509F424
:102A70004AC078F54130510509F485C08BE590E0F6
:102A8000E4EFF6E04230510509F003C12091E8007F
:102A9000277F2093E8002091B6023091B702821779
:102AA000930708F49C0140E02115310509F070C03E
:102AB00041116EC08091E80082FDC9CF8091AE02C5
:102AC000882329F2853019F28091E80083FFF2CF44
:102AD000BECF4132510509F447C04232510509F0D9
:102AE000D8C08330910508F0D4C0FC01EE0FFF1F61
:102AF000E558FE4F0190F081E02D88589E4FDC0193
:102B00008C9190E01DC0332721303105E9F021156B
:102B1000310579F022303105F9F02330310509F023
:102B2000B8C0E1E6F7E0E4918E2F90E0E1E6F7E04F
:102B300007C0E5EAF7E0E4918E2F90E0E5EAF7E0E0
:102B4000009709F4A6C0A2CFE3E9F7E0E4918E2F45
:102B500090E0E3E9F7E0F4CFEFE7F7E0E4918E2FC0
:102B600090E0EFE7F7E0ECCF8330910508F091C0FB
:102B7000880F991FFC01EF57FE4F0190F081E02D67
:102B800089E090E083CF82E190E0EFE4F7E07ECF50
:102B90008091AE02882309F45ACF853009F457CFCB
:102BA0008091E80083FD53CF8091E80082FD82CFC1
:102BB0008091E80080FF78CF9091F3008091F2003F
:102BC0002115310519F08830910550F041E0089742
:102BD00009F040E08091E8008E778093E80064CFB0
:102BE00044914093F1003196215031090196E8CF8C
:102BF000803809F04EC08091E800877F8093E8001C
:102C00008091AF028093F10092CE811142C0109169
:102C1000B2021230F0F58091E800877F8093E800DF
:102C20001093AF020E942907112311F084E005C020
:102C30008091E30087FDFACF81E08093AE0242E00D
:102C400061EC81E00E94480742E261EC84E00E946E
:102C5000480742E261EC82E00E94480742E260ECF1
:102C600083E00E9448078091AE0213C08091B202B7
:102C7000813079F481E0933009F080E08093AD02F7
:102C80001092E9008091E800877F8093E8000E941D
:102C900029078091E80083FF0AC08091E800877FC0
:102CA0008093E8008091EB0080628093EB00AA960D
:102CB000E3E00C945B2D1F920F920FB60F9211243C
:102CC0002F933F934F935F936F937F938F939F9334
:102CD000AF93BF93CF93DF93EF93FF93D091E9002E
:102CE000DF708091EC00C82FC17080FDC0E81092A9
:102CF000E9008091F000877F8093F00078940E9433
:102D000092131092E9008091F00088608093F000A7
:102D1000CD2BCF70C093E900FF91EF91DF91CF9160
:102D2000BF91AF919F918F917F916F915F914F91E3
:102D30003F912F910F900FBE0F901F901895EBE6CB
:102D4000F2E0128E138E8FEA90E09183808385E00B
:102D5000848F28E833E13383228322E330E0378B0A
:102D6000268B28EC30E0318F208F158E2AE030E062
:102D7000378F268F20E530E031A320A382A30E9465
:102D80000A100E9486131092210210922002E1E2A2
:102D9000F2E0808184608083809120029091210202
:102DA0000E9491100E94E90E08958F929F92AF9217
:102DB000BF92CF92DF92EF92FF921F93CF93DF9358
:102DC00080900C0190900D0181E090E090930D01B6
:102DD00080930C0180E3C82E84E0D82ED0E07601E9
:102DE000C0E014C0F50125913491412F6C2F8D2F37
:102DF0000E94521082E0A80EB11C1F5F163091F79E
:102E00008CE0E80EF11CCF5FC83019F0570110E0DC
:102E1000E9CFDF5F80E6C80ED11CD43001F70E94F5
:102E20009F1690920D0180920C01DF91CF911F911E
:102E3000FF90EF90DF90CF90BF90AF909F908F90DA
:102E4000089580E00E94781060E086E290E00E94A1
:102E5000C82D0E94D5160E94421081E00E94781071
:102E6000089568EE7EEF90E080E00E94E62D60E03D
:102E700082E090E00E94C82D60E083E090E00E9434
:102E8000C82D10920A0260E084E090E00E94C82DF4
:102E900064E082E290E00E94C82D60E085E090E06E
:102EA0000E94C82D60E086E090E00E94C82D6FEF80
:102EB00087E090E00E94C82D40E050E0BA0188E031
:102EC00090E00E94DA2D60E08DE090E00E94C82D35
:102ED00040E050E0BA0188E190E00E94DA2D60E025
:102EE00087E190E00E94C82D40E050E0BA018CE1FB
:102EF00090E00E94DA2D70E060E080E290E00E94B5
:102F0000E62D40E050E0BA0188E190E00E94DA2D21
:102F100080E00E9478100E94211740E050E0BA0142
:102F20008FE090E00E94DA2D40E050E0BA0183E1AA
:102F300090E00E94DA2D0895CF92DF92EF92FF92F7
:102F40008FEF9FEF4430510508F46AC0FB01C08049
:102F5000D180E280F3800E94861380912002C0FA23
:102F600080F9B701A601769567955795479540FB7F
:102F700081F9B701A60122E07695679557954795A7
:102F80002A95D1F740FB82F9B701A60133E0769587
:102F90006795579547953A95D1F740FB83F9B70167
:102FA000A601E4E07695679557954795EA95D1F7A0
:102FB00040FB84F9B701A601F5E076956795579532
:102FC0004795FA95D1F740FB85F9B701A601A6E030
:102FD0007695679557954795AA95D1F740FB86F961
:102FE000B701A601B7E07695679557954795BA95CD
:102FF000D1F740FB87F98093200280912102D0FA1B
:1030000080F9D1FACC24C0F8C0FA81F9809321026A
:1030100080912002909121020E94911090E080E026
:10302000FF90EF90DF90CF9008950E9486132FEFCE
:1030300084E39CE0215080409040E1F700C0000014
:1030400088E19CE00FB6F894A895809360000FBECD
:1030500090936000FFCF882341F080959091B80253
:1030600089238093B8020E9493120895882339F02F
:103070009091B802982B9093B8020E9493120895F1
:10308000882321F00E94FF0A0E949312089588234A
:1030900039F090914A02982B90934A020E94931221
:1030A0000895882309F44DC0823879F40E9470088D
:1030B00081FF47C089E30E941A0B0E94931289E3A3
:1030C0000E940D0B0E9493120895833859F40E94B8
:1030D000700880FF36C083E50E941A0B0E9493128D
:1030E00083E5EECF843859F40E94700882FF29C02E
:1030F00087E40E941A0B0E94931287E4E1CF9CEFB1
:10310000980F913AE8F290E2980F983050F4877057
:1031100091E001C0990F8A95EAF7892F0E94FF0A72
:10312000D1CF9BE5980F933028F490E080E00E9487
:103130005A080895885A873120F490E080E00E9470
:1031400044080895CF93DF93EC010E945118CE01FB
:103150000E94F40B9E01205E31092830310510F0E9
:10316000CD2B29F40E944018DF91CF9108950E9441
:103170002B18FACFCF93C82F8823C9F08238C9F40F
:103180000E94700881FD13C089E30E941A0B0E94FF
:1031900093122FEF87EE93E0215080409040E1F7AB
:1031A00000C0000089E30E940D0B0E949312CF9192
:1031B00008958338A1F40E94700880FDF8CF83E55C
:1031C0000E941A0B0E9493122FEF81EE94E021507F
:1031D00080409040E1F700C0000083E5E4CF8438F0
:1031E000A1F40E94700882FDE2CF87E40E941A0BCE
:1031F0000E9493122FEF81EE94E021508040904086
:10320000E1F700C0000087E4CECF8CEF8C0F813A4D
:1032100068F4ECE8F1E08191C817A1F121E0E2390E
:10322000F207C9F78C2F0E941A0BBFCF80E28C0FD8
:10323000883068F4C77021E030E001C0220FCA95E1
:10324000EAF780914A02822B80934A02AECFEBE5E7
:10325000EC0FE33040F4F0E0EF5DFE4F808190E052
:103260000E945A08A4CFC85AC73108F0A0CFEC2F4B
:10327000F0E0EE0FFF1FEC5DFE4F808191810E9418
:10328000440895CF8C2F0E940D0B0E949312CACF39
:103290001F93CF93DF93182FC0918B02D0918C0294
:1032A000893321F0C0918902D0918A02812F0E9436
:1032B000BA18209739F4812F0E945118DF91CF91CD
:1032C0001F9108958FE99FE00197F1F700C000007A
:1032D0002197EFCF0F931F93CF93DF93C62FD42F58
:1032E000022FFC0182818823A9F06093BB020E9417
:1032F000AB119093BA028093B902C77081E001C00C
:10330000880FCA95EAF70E944718DF91CF911F9165
:103310000F9108958091BB02681332C08091B90269
:103320009091BA020E949C11883C910548F510E2E8
:103330001D0FCD17B9F080E28C0F883040F4C770B4
:1033400081E001C0880FCA95EAF70E944018183042
:1033500048F481E09D2F977001C0880F9A95EAF795
:103360000E944718802F0E944819183070F6D770B5
:1033700081E001C0880FDA95EAF70E944018C5CFB6
:10338000C77081E001C0880FCA95EAF7F6CFB0E0B8
:10339000A0E0EDECF9E10C94372DEC01A62E8AE0CB
:1033A000982E2881222309F4A4C0213009F04BC0B3
:1033B0008981813091F48E010E5F1F4F8A810E94B6
:1033C0004819E80121968A2D815058F3EFE9FFE072
:1033D0003197F1F700C00000F7CF823039F48E0149
:1033E0000E5F1F4F8A810E94BA18EBCF833039F4E9
:1033F0008E010E5F1F4F8A810E945118E2CF8430E8
:1034000011F02196DFCF2A81229690E080E0AE0174
:103410004F5F5F4F2053330B2A30310548F001973F
:1034200088F2EFE9FFE03197F1F700C00000F7CF35
:10343000989EB001999E700D1124C901860F971FA7
:103440002981EA01E4CFE22FF0E0EC58F94FB49083
:10345000822F86958695869590E0FC01EC59F94F70
:10346000E4902770F12C022E02C0F594E7940A94A0
:10347000E2F731E0E322FF24FC01EC5AF94FC4905B
:10348000D12C022E02C0D594C7940A94E2F7E1E051
:10349000CE22DD24FC01EC5BF94F049110E002C068
:1034A000159507952A95E2F701701127E114F104AB
:1034B00019F081EE0E94BA18C114D10419F086EEF9
:1034C0000E94BA188B2D0E944819C114D10419F01A
:1034D00086EE0E945118E114F10419F081EE0E9469
:1034E00051180115110509F46DCF8CE20E9448199D
:1034F00069CFCDB7DEB7EBE00C94532DCF93DF93BC
:10350000EC010E94F40B9E01205E31092830310548
:1035100010F0209741F40E9447188C2F0E94BA188F
:10352000DF91CF9108950E943618F7CF662329F0D6
:103530002091B80222602093B8029C0130562115D8
:1035400040E2340720F0305E2115304108F499271D
:103550000E947E1A0895B0E0A0E0E1EBFAE10C943D
:103560003B2D7C018B01D42E8091170182FF8CC0F2
:10357000C0919102D0919202CE15DF0521F0E114A5
:10358000F10409F081C0809117018B7F80931701AE
:1035900081FD73C080918F0290919002A801481B19
:1035A000590B81E020911501309116014217530704
:1035B00008F480E08170F82E80911701F0FA81F90B
:1035C00080931701FE0183E0F695E7958A95E1F770
:1035D000EE71FF27E55BFD4F20813181AE014F7019
:1035E000552781E090E002C0880F991F4A95E2F7C5
:1035F000FF2009F444C0822B932B91838083809118
:103600004A0281FF08C080911701806180931701F1
:1036100082E00E94FF0A80914A0285FF08C08091E3
:10362000170180628093170180E20E94FF0A6F2DCC
:10363000CE010E94961ADD2031F08091860285FF2E
:1036400002C086FF3BC08091890290918A020E944D
:10365000E80D80919102909192029C0130562115C3
:1036600040E2340720F0305E2115304108F49927FC
:103670000E94A2180E94DF121DC081E09BCF80959E
:10368000909582239323B9CFC7019927970130568C
:10369000211540E2340728F0305E2115304108F052
:1036A000C7010E94A21880919102909192028E15FA
:1036B0009F0501F31093900200938F02CDB7DEB700
:1036C000E7E00C94572DA7E1B0E0E9E6FBE10C94AC
:1036D0003F2D4B8B5C8B6D8B7E8B8F8B8E899F8967
:1036E000892B29F0CA0189238F3F09F0A1C08D8958
:1036F00081111092B8021A8A198A85E0FE01739628
:10370000DE011D9601900D928A95E1F780912102CC
:1037100082FF1EC080916D0290916E02892BC1F0D4
:103720000E94AB112091E0013091E101821B930BCB
:1037300020916D0230916E028217930720F08091E4
:10374000E20182FF71C00E94791281110E94F40A85
:1037500086E0FE013D96DE01179601900D928A9556
:10376000E1F7CE0107960E94F623882359F016E070
:103770008091DF019091AE01891343C06796E3E029
:103780000C945B2D86E0FE013796DE0111960190C8
:103790000D928A95E1F78A859B85892B41F388856F
:1037A0009F8189238F3F19F32091AE0130E0C90139
:1037B0000196877099274091DF014817190671F427
:1037C0000E9486131092AE011092DF0186E0E8EAB3
:1037D000F1E0DF011D928A95E9F7C9CF96E0929F4B
:1037E000D001939FB00D1124A155BE4FFE0131961B
:1037F00001900D929A95E1F78093AE010E94530BD0
:10380000B6CF819FC001112481559E4F0E94F6239F
:10381000882309F4B3CF8091DF0190E0019687708F
:1038200099278093DF01A4CF82E00E942D138BCFD4
:1038300080919401909195010196909395018093C8
:10384000940155CFA5E0B0E0E8E2FCE10C94402DF6
:1038500090931D0280931C02811520E2920730F4A0
:103860000E94A2182596E2E00C945C2D80EF8983DB
:103870008A831B820E94AB118160782F9D838C8389
:1038800049815A816B818D810E94631BEBCFA5E03A
:10389000B0E0EDE4FCE10C94402D90931D02809388
:1038A0001C02811520E2920730F40E947E1A2596B0
:1038B000E2E00C945C2D80EF89838A8381E08B8326
:1038C0000E94AB118160782F9D838C8349815A813E
:1038D0006B818D810E94631BEACFA4E0B0E0E3E737
:1038E000FCE10C94362D7C01FC0183819481892BB1
:1038F00039F040815181842F85238F3F09F0D7C64D
:103900002496ECE00C94522DC80182519F454097BB
:1039100008F06AC68FEF93E00E94BA2D8111B0C003
:103920006EEED62ED00E0BED11E0D11037C01982FD
:103930001A821B821C8299249A9468012FEFC21A62
:10394000D20AC8010E94BA2D89831A82882309F4F9
:1039500097C0813009F088C0580132E0A30EB11C35
:10396000C6010E94BA2DC82E8A83882309F488C014
:10397000C5010E94BA2DD82E8FEF8C0D8330E0F454
:10398000580143E0A40EB11CDB82DD2029F060E089
:10399000CE0101960E94C7198501CFCF0115F4E031
:1039A0001F0709F46DC0C8010E94BA2D811101C022
:1039B000DA940F5F1F4FB9CF8BEF8C0D833070F50A
:1039C000C8010396DB825C01DD2031F3580154E02D
:1039D000A50EB11C0E94BA2D8C838823E9F20B81BD
:1039E0001C8101306FEF160710F0102F002776E0D2
:1039F000C71681F087E0C81649F0C8010E94471C2D
:103A00008091890290918A020E94E80DC8010E946B
:103A1000221CC2CFC8010E94471CBECF94E0C9122D
:103A2000BBCF5801E4E0AE0EB11CC80103960E9462
:103A3000BA2DDD2029F1882319F18150990B989E28
:103A40009001999E300D11244D2D4150550BCA0106
:103A5000820F931F019708F49FCFEFE9FFE03197A2
:103A6000F1F700C00000F6CF6AE0CE0101960E9497
:103A7000C719560191CF81E00E945E130E94141372
:103A80008091E201877009F43BCFF701828188239E
:103A900009F436CF8091210282FF32CF82E00E946A
:103AA0002D132ECF81E00E942013E8CF82E0E4CFD7
:103AB00080911701816080931701CDC58091170116
:103AC0008E7F809317010E94DF12C5C58091170178
:103AD0008F7E013E110531F0053E1105C1F4809144
:103AE00017018F7D809317018091170180FFC2C558
:103AF000F70182810832110528F50E31110508F011
:103B000074C00430110580F58111B0C5B3C5C8017A
:103B10009056811560E2960720F0905E81159041E5
:103B200018F78091170182FFA5C58091880281FD59
:103B3000A1C524E032E040E0B60190E080E00E94C0
:103B4000AB1A98C50933110558F40D32110518F454
:103B50000B321105C9F69091860292FDD5CF08C0AF
:103B600004361105C1F3D0CF9091860294FDCCCFDD
:103B7000882309F49DC090914A028091ED01282F7D
:103B8000292B322F3D7FB1F11092920210929102B7
:103B90003091860231FD2EC0F80143E0F695E7959D
:103BA0004A95E1F7EE71FF27E55BFD4F98012F7015
:103BB000332781E090E002C0880F991F2A95E2F731
:103BC00080959095208131818223932391838083F6
:103BD00060E0C8010E94961A8091ED018D7F0E94DD
:103BE000651282E00E942D134BCF9091860293FDC7
:103BF0008BCFBECF36E0F701A4E0B2E001900D928A
:103C00003A95E1F71092060210920802109207020C
:103C1000A0909102B09092020A151B0591F5309187
:103C2000860235FF2EC04091170141FB992490F880
:103C300041FF02C036FF25C040918F025091900293
:103C4000B601641B750B683C7105D8F491FF08C080
:103C50008091170180618093170182E00E94FF0A22
:103C600080914A0285FF08C080911701806280938D
:103C7000170180E20E94FF0A692DC5010E94961A71
:103C8000FFCE9091170121FB91F9909317018D7F41
:103C90000E9465121093920200939102D0929002BA
:103CA000C0928F028091170184608093170199CF91
:103CB000970140E0B601C8010E94AB1AE1CE053F72
:103CC0002CE5120709F45CC008F456C0063F4CE529
:103CD000140709F459C0F7013281332309F4FEC4F3
:103CE0001092BB020330FDE51F0708F054C00A3FE5
:103CF0002CE5120730F4C80182509C45449708F027
:103D000056C00E94E60F9093210280932002023158
:103D10007CE5170709F49EC108F0EEC009309CE568
:103D2000190709F475C108F0B8C00530FCE51F0794
:103D300009F462C108F09FC003303CE5130709F4A1
:103D400053C108F055C180912002816002305CE5CA
:103D5000150709F4CEC080912002909121020E94A3
:103D600091100E9486138CCE27E245EE65EE9BC42F
:103D700026E241EE60EE97C427E245EE64EE93C47E
:103D800026E241EE62EE8FC427E245EE66EE8BC47A
:103D900028E241E0EBCF053A4DE5140709F4B1CF35
:103DA00008F062C001366DE5160709F4AACF0631A6
:103DB0002CE5120709F497C40A357DE5170709F4C5
:103DC000A2C108F07BC101159CE5190709F481C166
:103DD0000E3D1C4509F48AC1F701828100811181E1
:103DE000882309F494C1C8010E945B0FD82E682F64
:103DF000C8010E94910BB8018D2D0E943E0F0E94B8
:103E000073098C01882EF701C280D580D2943FE0DF
:103E1000D3228091E2018770C1F0AC2CCC20B1F0AC
:103E2000812F807F803421F080E2800F883068F01D
:103E30008091210282FF09C082E00E942D138091AF
:103E4000E2018770AA24A3948111A12C912E92944F
:103E50002FE09222FBE0F91508F4D6C1E92DF0E03D
:103E6000E85FF14D0C94872DC8018D5A9D4503974D
:103E700008F09DCF46CF80912002806207306CE52C
:103E80001607B9F180912002806108307CE51707A0
:103E900080F18091200280642CC00D308CE51807E1
:103EA00009F4C0C090F4809120028E7F0B30ECE5C5
:103EB0001E07F9F0809120028C600C30FCE51F0792
:103EC000C0F0809120028D7F14C00F302CE51207C6
:103ED00009F4B8C008F4AAC000314CE5140709F48D
:103EE000B5C0809120028F7B01315CE5150709F098
:103EF00032CF809320022FCF0F3F6CE5160709F4D5
:103F0000B3C0A8F50A3F8CE5180709F479C0C0F4DE
:103F10000431ECE51E0709F4B5C008F4A1C0053171
:103F20002CE5120709F017CF8091200282FB992718
:103F300090F921E0922790FB82F990FB83F9D9CF89
:103F40000C3F3CE5130709F475C008F45DC00D3F54
:103F50005CE5150709F472C08091210283600E3F71
:103F60006CE5160709F0F7CE80932102F4CE0136F6
:103F70007DE5170709F491C090F401309DE519071C
:103F800009F489C008F474C060E00230FDE51F0741
:103F900009F0E1CE8EE090E00E94C82DDCCE0D3A13
:103FA0002DE51207E9F060F490912002892F8E7FB1
:103FB00090FF8160053A4DE5140709F49ACFCBCE06
:103FC0000E3A5DE5150751F10F3A6DE5160709F058
:103FD000C2CE90912102892F877F93FF8860C4CF42
:103FE000809121028860C0CF80912002826081CFC1
:103FF0008091200284607DCF80912002886079CFFB
:10400000809121028160B0CF809121028260ACCF8B
:104010000E9486138091200280686BCF80912102DC
:10402000877FA2CF809120028B7F63CF8091200277
:10403000877F5FCF809121028E7F96CF8091210272
:104040008D7F92CF809120028F7E53CF809120026E
:104050008F7D4FCF0E948613809120028F7749CFAA
:1040600080912002837F45CF809121028C7F7CCF7D
:1040700080912102982F909591708E7F892B90FBD3
:1040800081F972CF0E94861390912002892F97FBAD
:1040900087F980582ECF61E07DCF90912002892F43
:1040A0008F7E94FF806125CF80919201811104C0A1
:1040B00089E20E940D0B42C385E3FBCF0C35FDE581
:1040C0001F07B9F010F1073A1D4509F085CE0E948F
:1040D00015180E9486134FEF54E36CE04150504096
:1040E0006040E1F700C000000E94C40D0E9431173B
:1040F000EECF8091210282FB882780F991E0892709
:104100000E94491369CE81E0FBCF80E0F9CFC8015E
:104110000E945D0BD82E6FCE212F2F70B22E812FD3
:10412000807F19F0B29490EFB922CC20B9F0BB2077
:1041300069F080E2800F883010F0811009C0809112
:104140004A02B82AB0924A020E949312802F5AC0A3
:104150008091B802B82AB092B802F6CF802F0E94A0
:104160005118BB2009F450C080E2800F883010F055
:10417000811004C08B2D0E94FF0A06C0B09480916C
:10418000B802B822B092B8020E9493123DC0312FFB
:104190003F70B32E812F807F803219F0B29480EF70
:1041A000B8228820F1F041E0841609F4AEC0CC209A
:1041B00009F4B7C0DD2009F47FC020E0F701408199
:1041C00051816281738184810E94AA0F809188024B
:1041D00081FDBCCFF701858180FFB8CF8F708583CB
:1041E0006BC08091210282FD47C0CC2009F43EC003
:1041F000BB2039F080914A02B82AB0924A020E944C
:10420000931280E00E94BA18292D2850330B2430D5
:10421000310510F40E947008C8010E94C80B81117A
:10422000C4C11092950110929401AA20A9F0809126
:10423000E20180FD11C0F701128285958595859573
:104240000E945E13C7010E946D1C8091E20185955A
:10425000859585950E94201320E0F70140815181CA
:104260006281738184810E94AA0F4ACB80E00E9400
:104270005118BB2049F27ECFCC2011F1D11004C0DF
:104280008091ED018B2919C051E0D51206C08091B3
:10429000ED018B290E946512B7CF80918702823091
:1042A00078F3D812EDCF0E94F40A909193018B2DF0
:1042B000892B8913809393018B2D0E944718A4CFDB
:1042C000D11003C00E94F40A17C08091870261E0F8
:1042D000D61216C0823008F497CF80914A028B2103
:1042E00009F492CF0E94F40A909193018B2D80954E
:1042F00089238913809393018B2D0E94401884CFCA
:10430000823000F3D812DECF7FCF80918D02CC2097
:1043100021F08D1508F478CFCFCFD81608F074CFE0
:10432000EBCFDD2049F3F9E38F1237C180918B0287
:1043300090918C020E94E80D802F0E94511864CF4A
:10434000812F86958695837061F0813009F05CCF6E
:10435000C8019370C11002C090E080E00E94440840
:1043600053CFC8019370C11002C090E080E00E945A
:104370005A084ACF812F837091F5C11045CF402F45
:10438000429546954770440F440F802F8F70042E3E
:1043900001C0880F0A94EAF7202F207104FF07C09C
:1043A0002FE030E001C0220F4A95EAF72095312F27
:1043B000369536953370323069F050F440910A02E8
:1043C000313029F0822B84230E9481131DCF842B4E
:1043D000822BFACF282B80910A028227F5CF86956F
:1043E000CC2011F0812F8170882309F40DCF402F4C
:1043F000429546954770440F440F802F8F70042ECE
:1044000001C0880F0A94EAF7202F207104FF07C02B
:104410002FE030E001C0220F4A95EAF72095312FB6
:10442000369536953370323069F050F44091BC02C5
:10443000313029F0822B84230E940F13E5CE842B88
:10444000822BFACF282B8091BC028227F5CF212F17
:104450002F70B22ECC2029F0822F0E945E13802F65
:104460002CCF802F0E9440188B2D0E942013CCCE81
:10447000802F32EF8316B1F1381570F040EF8416BB
:10448000D1F051EF851691F0CC2009F481C0D11004
:104490005DCE812F8F712AC063EF861651F174EFC4
:1044A0008712F2CF8091210282FD2FC0812F8F7160
:1044B000CC20D9F21BC080918D02CC2079F0D81687
:1044C00008F0A2CE212F2F7181E090E001C0880F6B
:1044D0002A95EAF79091BC028927AECF8D1508F492
:1044E00093CEF0CF812F8F71C110BFCF0E945E138A
:1044F0008BCE80E0CC2009F49FCF81E0912F9F717B
:1045000001C0880F9A95EAF797CF80918702823091
:1045100038F1CC20C9F09091E2019770943041F4C9
:104520000E94060B812F8F710E942013A12C6CCE4C
:10453000D816E0F7812F8F71B82E0E945E1363E0CA
:104540008B2D0E946A13F2CFD81630F00E94060B12
:1045500064E0812F8F71F5CF81E00E942D13E6CFAB
:10456000CC2059F0912F9F71B92E892F0E945E1394
:1045700063E08B2D0E946A1347CE81E00E942D13C9
:10458000E1E0ED1508F040CE82E00E942D133CCE14
:10459000DD2041F0893309F4C9CE809189029091E0
:1045A0008A02C8CE812F8F7160CFCC2019F0D11034
:1045B00038CE3BCED11035CE20E0F701408151817D
:1045C0006281738184810E94AA0F8091880283FF97
:1045D00028CE8091940190919501029709F021CE07
:1045E000802F0E9448191DCE0031FFE51F0709F4F6
:1045F00042CA01312FE5120709F458CA8091860298
:1046000080FF38C00E94AB116C01F70182818823C2
:1046100009F45CCA8091170182FF08C024E032E0EF
:1046200040E0B60190E080E00E94AB1A0B31FCE55F
:104630001F0709F43DCA0C312CE5120709F43ECAE4
:1046400090911701892F8E7F90FF81600A313CE5A0
:10465000130709F436CAC8019056811540E2940741
:1046600028F0905E8115904108F03ECA10929202A7
:1046700010929102033F7CE5170709F479CB08F00B
:104680001ECB083D9CE5190709F46ECB093DECE50E
:104690001E0709F47DCB073DFCE51F0709F01BCB86
:1046A00026E241EE61EEC7010E946A19E9C921E0E4
:1046B0006281738184810E94AA0F8C01F70182813B
:1046C000811122C900313FE5130709F4EBC901311B
:1046D0004FE5140709F092CF82E0E5C90631FCE509
:1046E0001F0709F079CB80914A02982F9A7A20917E
:1046F000850220FF04C0482F447409F090E021FF98
:1047000004C0482F417109F090E022FF04C0482FF7
:10471000487809F090E023FF03C0827209F090E02E
:10472000332309F4C1CC81E0911101C080E0809372
:10473000920189E2911185E30E941A0B0E94931263
:104740009FC91F93CF93DF938091AD01807F09F0C4
:1047500049C08091AA01882309F444C08091DF01F7
:10476000D091AE016091A8017091A901A091AB0117
:10477000B091AC01C62FC72316E0D81799F190E08D
:10478000109711F0CF3F19F401968770F6CF189F5C
:104790009001199F300D1124F901E155FE4F41811F
:1047A0004713F2CF40814613EFCF42814111ECCF46
:1047B000438154814A1B5B0B483C510528F780918B
:1047C000AD018F7080618093AD01F901EC54FE4F13
:1047D00080818F708061808388EA91E00E946D1CE7
:1047E0000E94530BDF91CF911F910895A1E1B0E09A
:1047F000ECEFF3E20C94362D8C0185E0F801DE013C
:104800001D9601900D928A95E1F7D8019C90119622
:104810008C9011971296EC9012971396CD90DC9095
:1048200020E04091A8015091A9016091AA017091E6
:10483000AB018091AC010E94AA0F88EAA82E81E00A
:10484000B82E4091AB015091AC014115510509F4CE
:104850003AC19091A8012091A901892F82238F3F0D
:1048600009F431C1F090AA01F601E41BF50BFF2019
:1048700009F4F6C08091AD01382F307FE83CF10596
:1048800008F0C0C0D80111964C91119731117BC02E
:10489000FE2C421315C02C91291312C0E11010C038
:1048A0008F7080618093AD01C5010E946D1C809165
:1048B000AD01F80185838F2D6196ECE00C94522DAB
:1048C000C114D10429F0892D88218F3F09F019C125
:1048D00080E080FF18C04E2D682D892D0E94330B7B
:1048E000882389F08091880280FF0DC088EA91E0DA
:1048F0000E946D1C86E0E8EAF1E0DF011D928A95D6
:10490000E9F7F12CD8CFC114D10429F0892D8821E1
:104910008F3F09F0F3C080E0B82FB170CB2E80FF3D
:1049200029C04E2D682D892D0E94330BD82E811160
:1049300021C09D868E868D859E850E948A0F292F97
:1049400022952F70223050F0243078F49F7051F06F
:10495000F8019581907F31F4FD2CADCF9F7011F05F
:104960008823D1F3805E8830B8F3C8010E946D1CA3
:10497000DC2CF2CFEE2009F49ECF8091AD01816056
:104980008093AD01BECF421313C02C91291310C0E8
:10499000E1100EC015968C93C8010E946D1C86E034
:1049A000F801A8EAB1E001900D928A95E1F783CF72
:1049B000C8010E94970F882309F1EE20F9F0809139
:1049C000AD01803270F02091A8013091A9013887A3
:1049D0002F831986DB86CA868C87CE0107960E94B4
:1049E0006D1C86E0F801A8EAB1E001900D928A956D
:1049F000E1F70E94A123FF24F3945DCFC8010E9438
:104A00006D1CF9CF332309F471CFF80131813213D2
:104A10000FC0208129130CC0E1100AC08583C80192
:104A20000E946D1C86E0D5011D928A95E9F743CF5F
:104A3000C8010E94970F882309F3EE20F9F28091B4
:104A4000AD01803270F22091A8013091A9013A8322
:104A500029831B82DD82CC828E83CE010196BFCF5B
:104A6000E83CF105F8F6FE2CEE2041F2F8018181D8
:104A700082131BC08081891318C08091880282FD37
:104A80008ECF9091AD0190FD8ACF907F09F487CFB2
:104A90008091AD018583903F09F47ECF982F907F60
:104AA000905F8F70892B858377CFC8010E94970F05
:104AB000811197CF8091AD0181608093AD01C801D4
:104AC0000E946D1CF8CEEE2009F498CFC8010E9418
:104AD000970FF82E882309F491CF86E0F801A8EA11
:104AE000B1E001900D928A95E1F78091A801909133
:104AF000A9010E948A0F0E94A123DDCE81E08E25AC
:104B00000BCF81E08E25E5CE1F921FB61F92112498
:104B10008F939F93AF93BF9380919902811113C09C
:104B200080919A0290919B02A0919C02B0919D026B
:104B30004196A11DB11D80939A0290939B02A09370
:104B40009C02B0939D02BF91AF919F918F911F9056
:104B50001FBE1F901895CDB7DEB7E2970FB6F89439
:104B6000DEBF0FBECDBF85B7806885BF85B78068C3
:104B700085BF84B7877F84BF0FB6F894A8958091CE
:104B80006000886180936000109260000FBE80E832
:104B900090E00FB6F89480936100909361000FBE8F
:104BA00087E199E090938901809388010E94E90E42
:104BB0000E94AF060E947A078091E2008460809391
:104BC000E20078948091AE028823A1F01091E90070
:104BD0001F709091EC00892F817090FD80E8182B58
:104BE0001092E9008091E80083FD0E9492131F70EB
:104BF0001093E90082E084BD93E095BD9AEF97BDE4
:104C000080936E000E94CD0F811102C00E94211777
:104C100002E511E0D8018D918D018F3F11F00E94C6
:104C20001909B1E00A351B07A9F70AE511E0F0E61A
:104C3000EF2EF1E0FF2EF80181918F018F3F11F0EF
:104C40000E941909E016F106B1F788E0E4E1F2E00C
:104C5000DF01282F1D922A95E9F7E1EFF1E0DF014E
:104C60001D928A95E9F790E080E00E94C22D883E6F
:104C70009E4F21F40E94CD0F811102C00E94311776
:104C800082E090E00E94BA2D8093FB010E94E60F23
:104C900090932102809320020E94B711EFE3FCE978
:104CA0003197F1F700C000000E94B7118091140203
:104CB00080FF08C06FEF7FEF90E080E00E94E62D5C
:104CC0000E94C40D83E090E00E94BA2D0E948113DF
:104CD0001092420280E88093BD020E94302C6DE069
:104CE00070E083E591E00E94F60C892B59F58091E4
:104CF000420263E070E081FD9DC080E591E00E948A
:104D0000F60C892BF9F46DE070E080E491E00E94EC
:104D1000F60C892BB9F40E943808605A75418F4F00
:104D20009F4F609344027093450280934602909394
:104D300047020E94250C81E080934902809348023B
:104D40001092430281E080930D0222982A9A2698BD
:104D50002E9A8FE891E00197F1F700C000002091B2
:104D60000D024EE052E0FA018E2F841B821708F4E8
:104D700064C080E091E0909396028093950258E1A0
:104D8000652E712C60E4562E7CE1C72E72E0D72E82
:104D9000E4E0AE2EB12C8091AE0200E112E185304C
:104DA00009F48CC00E94B7114CEFE42E41E0F42EC0
:104DB00004E112E0D801F70191918D9122E0E430F5
:104DC000F20709F485C09817B9F3912CD8018D909A
:104DD0008D01F70121907F01281419F12824412C1D
:104DE00033243394822D8321A1F04EA69FA691E017
:104DF000882D832109F490E098AB0E94AB1181606B
:104E0000782F9AAB89AB4EA55FA568A98AA90E94A5
:104E1000631B4394330CF6E04F12E4CFF701319754
:104E20008082939428E09212D1CF0E9438084424C3
:104E300043946FC08DE491E062CF83B182FB8827F9
:104E400080F91E9904C090E0892B81938DCF92E068
:104E5000FBCF8091AE02843019F10E94200D109298
:104E600099020FB6F894A895609260000FBE509218
:104E7000600083B7817F846083BF83B7816083BF15
:104E80007894889583B78E7F83BF0FB6F894A895E2
:104E900080916000886180936000109260000FBE76
:104EA0008091AD02882351F00E94B711E4E1F2E055
:104EB0008191811188C4CE16DF06D1F78091AE02B0
:104EC000853009F4C6CF0E9486130E9470086ACF0D
:104ED00098137BCF0E94AB118C018091F9019091C6
:104EE000FA0108171907A1F08FEF89A78AA71BA657
:104EF0000E94AB118160782F9DA78CA749A55AA568
:104F00006BA58DA50E94631B1093FA010093F90114
:104F1000412C8091860280FF1EC08091170182FF84
:104F20001AC00E94AB1120918F0230919002AC0107
:104F3000421B530B20911501309116014217530764
:104F400050F024E032E041E0BC0180919102909168
:104F500092020E94AB1A912C812C3324339477C097
:104F6000092D10E0E3B1E2FBEE27E0F91E9903C141
:104F700080E08E2BD801A25FBD4FEC919E2F9370E5
:104F8000891709F463C0EE0FEE0FE82BEC93EF7076
:104F9000F0E0E05AFE4FC801845F9D4F7C018081A4
:104FA000D7019C91890F8C9320E0843004F1F801A3
:104FB000E55FFD4F80818F5F80830E94250C0E94FA
:104FC000F20D911013C080918A0181FFD6C08091AB
:104FD0001002882359F0815080931002B32D01C034
:104FE000BB0F8A95EAF78B2F0E940F1321E0F70180
:104FF00080818D3F04F5F801E55FFD4F8081815090
:1050000080830E94250C0E94F20D911013C08091A4
:105010008A0181FFC8C080911002833058F48F5FED
:1050200080931002F32D01C0FF0F8A95EAF78F2FAE
:105030000E940F1321E0D7018C91082E000C990BD0
:10504000B5010E94732DF7018083822A9394809189
:105050000D02981608F484CF81100E9438088091C0
:1050600049028823C1F160E080E00E947D080E942F
:10507000700880FDAEC00E9470088270909110028E
:10508000892B09F0A6C08091BC020E94E30B81111C
:10509000A0C080E691E00E94E80C81E080930F02BE
:1050A0000E94F20D809148028823A9F00E943808DE
:1050B000009144021091450220914602309147022E
:1050C000601B710B820B930B6F3F7F4F8F4F9F477E
:1050D00010F40E94200D411001C081100E943B0D70
:1050E0000E94700890911102891721F0809311029B
:1050F0000E9438088091AE02843009F04CCE83E0E3
:105100008093E9008091E80082FF45CE8091E8001D
:1051100090E085FF0CC00E94CE0630E2E32EF12C19
:105120008E010F5F1F4F882309F4F3C091E0809137
:10513000E8008B778093E800992309F42CCE009146
:105140001E0210911F0289810115110509F4EFC09B
:105150008E3F09F02EC18A81833020F08550833044
:1051600008F027C1EA81EE3008F023C1F0E0EC5EE0
:10517000F14D0C94872D82E0FCCE9091BC02809181
:105180000A02892B0E94E30B813059F0882329F011
:10519000823009F02BCF8AE401C08AEA0E944819C4
:1051A00025CF8EE4FBCF9091BC0280910A02892B1F
:1051B0000E94E30B813059F0882329F0823009F0F6
:1051C00039CF8DE401C089EA0E94481933CF8BE4BE
:1051D000FBCF80910F02882331F00E94250C0E94A2
:1051E000F20D10920F0260E080E00E947D088DECCD
:1051F00091E00E94E80C61E080E00E947D0885EC6F
:1052000091E00E94E80C62E080E00E947D088DEB56
:1052100091E00E94E80C63E080E00E947D0885EB4D
:1052200091E00E94E80C62E088E00E947D08809195
:105230001002813009F443C0882349F0823009F418
:1052400041C0833009F441C087E492E002C08BE79B
:1052500092E00E94E80C63E088E00E947D08809163
:10526000BC020E94E30B90911002891331C08AE3C3
:1052700092E00E94E80C0E947008182F60E088E01D
:105280000E947D088DEE91E012FF02C083EF91E055
:105290000E94E80C61E088E00E947D0881EE91E0C8
:1052A00010FF02C087EE91E00E94E80C85ED91E0CE
:1052B00011FF02C08BED91E00E94E80CF1CE8EE66A
:1052C00092E0C7CF81E692E0C4CF84E592E0C1CFFF
:1052D000813061F0882339F0823059F0833061F0F9
:1052E00089EF91E0C6CF8DE292E0C3CF80E292E0F9
:1052F000C0CF83E192E0BDCF86E092E0BACF80914B
:10530000F100D8018D938D01B1E0EB1AF10809F499
:105310000DCF8091E80085FDF2CF8091E8008B777A
:105320008093E8000E94CE06882399F3FFCE8D304B
:1053300009F4ADC0B0F4843009F490C040F4823078
:1053400041F108F07CC0813001F18FEF61C28630FD
:1053500009F49AC008F48DC08C30B9F780E18A83D3
:1053600028C0813109F4EFC040F48F3009F4BEC089
:1053700008F491C00E9442101CC0833109F40FC18F
:1053800008F4E3C08E3F09F7EDCE1A8289E08B83E3
:1053900010C08A81823009F45AC2833089F1813089
:1053A000A1F60E9438080E948D2D6B837C838D832B
:1053B0009E838091AE02843009F0EDCC1091E9001B
:1053C0001F709091EC00892F817090FD80E8182B60
:1053D00082E08093E9008091E80080FF0DC050E0FA
:1053E00040E060E270E0CE0101960E94FF068091ED
:1053F000E8008E778093E8001F701093E900CBCC13
:1054000080910C0190910D01892B99F280911402E9
:105410008B83809115028C83809116028D838091FD
:1054200017028E83809118028F83809119028887DA
:1054300080911A02898780911B028A87BACF8A815C
:10544000823009F082CF6B817C818D819E810E94A8
:105450008D2D86E290E00E94C82DABCF4C816B81F0
:105460008A810E940F0F9827892798279E838D8312
:10547000A0CF2D813E813227232732274C816B819B
:105480008A810E94521095CF0E94D51692CF82E059
:105490008A8385E27CCF0C8110E00D31110508F084
:1054A00088CF8A809B80982489249824FE01319695
:1054B0007F010E0F1F1FC40185529E4FE016F1069B
:1054C00009F477CFF5E28F16F2E09F0660F40E94B0
:1054D000BA2DD70114968C93FFEF8F1A9F0A2FEFE6
:1054E000E21AF20AE8CFF7011482F6CF80910C019C
:1054F00090910D01892B09F45CCFEC80F12C4DE1EA
:10550000E416F10408F055CF0A811B81102701270A
:105510001027CE0101964C01E00EF11EC801855204
:105520009E4FE016F10609F444CF0532A2E01A07B7
:1055300020F4F40164810E94C82DFFEF8F1A9F0AA6
:105540000F5F1F4FEBCF84E00ACF0C8110E00D31CD
:10555000110508F02ECF8A809B80982489249824F6
:10556000CE0101967C01080F191FC4018796E01631
:10557000F10609F41ECFA0E88A16A1E09A0658F4B5
:105580000E94BA2DF7018483BFEF8B1A9B0AEFEFBD
:10559000EE1AFE0AEACFD70114961C92F5CFEC80E2
:1055A000F12CFDE1EF16F10408F003CF0A811B8115
:1055B000102701271027003821E0120708F0F9CE44
:1055C00080E891E0801B910B8E159F0508F4F1CEC9
:1055D000CE0101964C01E00EF11EC80187960E1512
:1055E0001F0509F4E6CE0038A1E01A0720F4F40103
:1055F00064810E94C82DFFEF8F1A9F0A0F5F1F4F13
:10560000ECCF88E0E9E1F1E0DE01919601900D92A6
:105610008A95E1F780E2FE013196DF011D928A95BD
:10562000E9F785E0898388E0B096DE011596019060
:105630000D928A95E1F7BDCE88EA898381E08A835D
:105640001B821C82B6CE8C81682F70E0762F662775
:105650008B81860F972F911D092E000CAA0BBB0B77
:1056600025E0880F991FAA1FBB1F2A95D1F7AC010F
:10567000BD01405E5F4F6F4F7F4F481759076A0764
:105680007B0708F496CE883AE1E09E07A105B105B4
:1056900008F08FCE493AF1E05F076105710520F00F
:1056A00048EA51E060E070E0481B590BBC016857C4
:1056B0007D4FCE0101960E94942D7BCE4EE150E0AD
:1056C0006FEF70E0CE0103960E94B32D80910C0124
:1056D00089830A836ECE81E090E090931F028093CD
:1056E0001E0282E390E090931302809312020E94C4
:1056F000AB115FCE80910C0189830A8380911202E5
:1057000046CE0B811C8140E250E06FEF70E0CE018D
:1057100001960E94B32D20EB35E090E080E0AC01D3
:105720004E5F5F4F4132510508F043CEF90165915C
:1057300074910617170750F4A1E0B0E0AC0FBD1F3D
:105740008A0F9B1FFC0171836083CA01245F3F4F56
:10575000F6E020343F0719F72CCE4B815C8180EBBB
:1057600095E020E436E0FC016591749164177507BB
:1057700009F43FC00C9628173907A9F7E6CD2B810D
:105780003C8100EB15E080E496E0F80145915491EE
:105790002417350709F43EC0045F1F4F8017910797
:1057A000A1F7EE24EA94FE2C50C00E949F1601CE71
:1057B0008B818111FECD80E2FE013196DF011D92C9
:1057C0008A95E9F7F6CD09BD19BD09B400FEFDCFF4
:1057D0008091D8008F7D8093D8008091E000826016
:1057E0008093E0008091E00081FDFCCF0E94861351
:1057F00065CBFC013696259134912115310509F4CC
:10580000A4CD4FE150E0BE016E5F7F4FF9010995D5
:105810008983CFCDF8013896259134912115310532
:1058200009F4BFCF4CE150E0BE016B5F7F4FC80170
:10583000F90109957C01892B41F4F8013A9685918B
:105840009491009711F0FC010995E982B2CD86E2AE
:1058500090E00E94BA2D1B821C821D828E83A9CDEE
:105860001092B9008CE08093B8000895B0E0A0E0F9
:10587000ECE3FCE20C94372DB82EEB010E94AB1147
:105880006C01EE24E394F12CC431D10560F025E0E5
:10589000E22EF12CCF3FDC0731F0CE0164E170E065
:1058A0000E941C2D7B0184EAA82E94E8992E109268
:1058B000BC00A092BC000E94AB118C018091BC0086
:1058C00087FF0DC08091B900887F8830F9F0809102
:1058D000B900887F8031D1F00FEF1FEF08C0C801F9
:1058E0000E949C11E816F90648F70EEF1FEFCF3F14
:1058F000DC07E9F2C6010E949C11C817D907B8F667
:10590000C801CDB7DEB7EBE00C94532DB092BB00CD
:105910009092BC000E94AB118C018091BC0087FF6B
:105920000AC08091B900887F883111F08034A1F6D7
:1059300010E000E0E5CFC8010E949C11E816F906CE
:1059400060F7D3CF0F931F93CF93DF93EB01809337
:10595000BB0084E88093BC000E94AB118C01809155
:10596000BC0087FF11C02091B900287F81E090E042
:10597000283211F490E080E0919581959109DF91B2
:10598000CF911F910F910895CF3FDC0741F3C801DC
:105990000E949C11C817D90710F78EEF9FEFEFCF29
:1059A000B0E0A0E0E6EDFCE20C943A2D6B018A0138
:1059B0007901B9010E94362CE6010C0D1D1DC0179E
:1059C000D10711F097FF08C024E92093BC00CDB7A0
:1059D000DEB7E8E00C94562DB70189910E94A22C05
:1059E000EECFB0E0A0E0E7EFFCE20C943A2DC62F3A
:1059F0006A017901B8010E94362C97FD0CC0B801EC
:105A00008C2F0E94A22CE601EC0CFD1CCE15DF05AC
:105A100011F097FF08C024E92093BC00CDB7DEB792
:105A2000E8E00C94562DB80189910E94A22CEECF8B
:105A300084E98093BC000895AA1BBB1B51E107C0F9
:105A4000AA1FBB1FA617B70710F0A61BB70B881F0E
:105A5000991F5A95A9F780959095BC01CD0108959D
:105A60002F923F924F925F926F927F928F929F926E
:105A7000AF92BF92CF92DF92EF92FF920F931F935C
:105A8000CF93DF93CDB7DEB7CA1BDB0B0FB6F8940D
:105A9000DEBF0FBECDBF09942A88398848885F844D
:105AA0006E847D848C849B84AA84B984C884DF80BE
:105AB000EE80FD800C811B81AA81B981CE0FD11DA2
:105AC0000FB6F894DEBF0FBECDBFED010895991B50
:105AD00079E004C0991F961708F0961B881F7A95E5
